:020000040800F2
:10000000E8080020AD0100081F1300088D0F00084C
:100010001D130008B9020008611900080000000063
:10002000000000000000000000000000A718000809
:10003000BB02000800000000A5180008A91800086D
:10004000C7010008C7010008C7010008C701000870
:10005000C7010008C7010008C7010008C701000860
:10006000C7010008C7010008C7010008C701000850
:10007000C7010008C7010008C7010008C701000840
:10008000C7010008C7010008C70100080000000000
:10009000000000000000000000000000C701000890
:1000A000C7010008C7010008C7010008C701000810
:1000B000C7010008C7010008C7010008C701000800
:1000C000C7010008C7010008C7010008C7010008F0
:1000D000C7010008C7010008C701000800000000B0
:1000E000C7010008C7010008C701000800000000A0
:1000F000000000000000000000000000C701000830
:1001000000000000C7010008C7010008C70100087F
:1001100000000000000000000000000000000000DF
:10012000C7010008C7010008C7010008C70100088F
:10013000C7010008000000000000000000000000EF
:10014000000000000000000000000000C7010008DF
:10015000C7010008C7010008C7010008C70100085F
:10016000C7010008C70100080000000000000000EF
:10017000000000000000000000000000000000007F
:1001800000000000C701000800000000000000009F
:10019000C7010008C7010008DFF80CD000F07AF8AA
:1001A0000048004765190008E80800200648804715
:1001B00006480047FEE7FEE7FEE7FEE7FEE7FEE74C
:1001C000FEE7FEE7FEE7FEE7511900089901000887
:1001D0002DE9F05F0546002092469B46884606467C
:1001E000814640241BE0284641464746224600F00F
:1001F00041F853465A46C01A914110D31146184649
:10020000224600F028F82D1A67EB01084F462246D7
:100210000120002100F01FF817EB00094E41201EBD
:10022000A4F10104DFDC484631462A464346BDE8D6
:10023000F09FD2B201E000F8012B491EFBD27047BB
:100240000022F6E710B513460A4604461946FFF7A2
:10025000F0FF204610BD202A04DB203A00FA02F10C
:10026000002070479140C2F1200320FA03F31943A4
:1002700090407047202A04DB203A21FA02F0002146
:10028000704721FA02F3D040C2F1200291400843A6
:1002900019467047064C074D06E0E06840F0010340
:1002A00094E8070098471034AC42F6D3FFF778FF84
:1002B0002435000844350008FEE77047EFF310804E
:1002C00072B6FEE7B0B5044600F04AF905460548A7
:1002D000611C007818BF044400F042F9401BA042A2
:1002E000FAD3B0BD000000202DE9F84F934A07244F
:1002F0004FF000094FF000084FF00F0A9042904A6B
:1003000008BF042402444FEAB223042B38BF4FEA4B
:10031000B2248C4A009401230F240027A2F57E7B8F
:10032000102F08BFBDE8F88F03FA07F20A4241D048
:1003300009F00C0527F0030CD24304FA05FE5BF824
:100340000C40009B04EA0E0403FA05F5AC4214D1FC
:100350007C4B7D4EBC081D6815401D605D681540D6
:100360005D603568154035609D6815409D605BF89F
:10037000245025EA0E054BF824500323056803FAA0
:1003800008F46FF0030303EA5706A543056006442B
:1003900009F01C05336A0AFA05F5AB433362C368FA
:1003A000A343C36043681A40012342608268A243AA
:1003B0000F24826009F1040908F102080137AFE750
:1003C0002DE9FC4F5D4A07244FF0010B4FF0000967
:1003D0004FF0000A90425A4A08BF042402444FEAF0
:1003E000B223042B38BF4FEAB22400940022102A13
:1003F00008BFBDE8FC8F0F680BFA02F6374200F029
:100400009780D1F80480032303FA0AF708F0030C5D
:10041000FF43ACF1010EBEF1010F0ED88468CD6828
:100420003C4005FA0AF52C438460C8F30014456883
:100430009440B5432C43446005E0BCF1030F02D166
:100440004FF0030C20E0C4688D683C4005FA0AF5C3
:100450002C43BCF1020FC46016D109F01C0E0F230F
:1004600003FA0EFC6FF0030303EA520505442C6AFD
:1004700024EA0C0C0C6904FA0EF444EA0C042C6215
:10048000D1F8048008F0030C05680CFA0AF43D402A
:100490002C4318F4403F04604AD0002322F00307A5
:1004A00001932A4B1C6844F480441C601C680F2391
:1004B00004F48044019409F00C0403FA04FC214B79
:1004C000019D9E461F44224BFD589846009B25EAFD
:1004D0000C0503FA04F42C4347F80840DEF8084002
:1004E0004F68FB0244EA0605174B58BF24EA06058D
:1004F000CEF80850BD029C461B6843EA060458BF6C
:1005000023EA0604CCF80040BD03DEF8043043EAD9
:10051000060458BF23EA0604CEF80440FD03DEF8C3
:10052000003043EA060458BF23EA0604CEF8004030
:1005300009F104090AF1020A013258E700100240E9
:100540000000FEBF003C01400C3C0140443802402A
:1005500008FCFFFF002A08BF090481617047000002
:1005600001480068704700BFE404002080B110B566
:10057000044601F06EF9204600F0BAF9002020642C
:1005800084F83D00206384F83C0084F83E0010BDF0
:1005900001207047F8B528B3044690F83D0020B913
:1005A00001F07CF9204600F0BDF901F052F9016834
:1005B00041F400410160016821F40041016000F054
:1005C000FFFA3B4900253B4A88424FF0000138BF03
:1005D0000121904238BF01256368374A934238BFF2
:1005E0000D460DB10120F8BD34494FF47A77B0FBC8
:1005F000F1F521684E6826F03F062E434E604FF419
:1006000096766E43934228BFB6FBF7F56A1C0D6AD7
:1006100025F03F052A434CF6FF750A62CA69AA43D2
:10062000274DAB420AD85B000138B0FBF3F0013034
:100630006FF31F30042898BF042013E0A568013829
:100640003DB119256B4301F015F90AD000F5804042
:1006500004E003EB430301F00DF902D000F5004084
:1006600000E00120104304F10C06C861E0690A684B
:1006700022F0C0021043226A104348F2FF320860A1
:10068000886890436CCE184310438860C86820F097
:10069000FF0028433043C86001F0D6F80020202135
:1006A000206484F83D10206384F83E00F8BD00BF4C
:1006B00080841E0000093D00A186010040420F0019
:1006C000A08601002DE9FC471F461646894601F029
:1006D0009CF8824601F059F80DD14B4D204601227D
:1006E0001923CDF800A005F5702100F005FD10B923
:1006F00001F042F802D10220BDE8FC8701F035F894
:1007000001D101F074F80168A5F10212DDF828802A
:1007100021F400610160212101F0A4F86785618D59
:10072000E26266622185E16A11F5803F18BF012906
:1007300019D101F041F820464FF001110022434643
:10074000CDF800A000F0D8FC38B120680068C005E2
:1007500044BF4FF40070206421E02069B0F5804F61
:1007600007D1FE2013E00829E3D0216B1229E0D045
:10077000E1E7062021684246534600EAD910F030EE
:100780000861A91D204600F0F1FC40B9FF20216856
:1007900000EA09004246534601F078F810B1012002
:1007A000BDE8FC87002001F06CF880690190019899
:1007B000208D28B320464146524600F00AFDC0B9BC
:1007C00001F00AF8228D531E23854E69760709D55C
:1007D0001B0407D0437802300B616062901E2085B5
:1007E00001F020F820464146524600F069FC0028FE
:1007F000DED0206C0428D2D1206800F0CAFFCEE7FA
:1008000000F0CCFFBDE8FC87020001002DE9FE43AB
:10081000994616460F4600F0F8FF054600F0B5FF72
:100820000AD13149204601221923009500F064FCC9
:1008300010B900F0A1FF02D10220BDE8FE8300F054
:10084000C0FF03D1136843F001031360136823F45E
:100850000063136021224B4600F0DAFF2349324641
:10086000608DE162394620852046CDE9008500F0A3
:10087000D5FB08B101F00FB8218D080422D0204625
:1008800041462A4600F0A5FC10BB606A226801467A
:1008900011F8013B1361638D013B63856162238D18
:1008A000591E218556697607E7D509044FF00001E6
:1008B000E3D0417802301161991E6062218500F019
:1008C000B1FFDAE7204641462A4600F0F9FB30B195
:1008D000206C0428CED1206800F05BFFCAE700F04E
:1008E0005DFFBDE8FE8300BF020010000000FFFFB7
:1008F00010B50B4C0068A4F5D831884218BF10BD64
:100900004E48016821F40011016020464021FFF7A4
:10091000EBFC20468021BDE81040FFF7E5BC00BF9E
:1009200000040240B0B586B001681448814223D16A
:100930000025134C00F5D8300095216841F00201E4
:100940002160216801F00201009104210591032139
:10095000CDE9035112210291C0210191009901A911
:10096000FFF72EFD0095206940F4001020612069FA
:1009700000F400100090009806B0B0BD0054004094
:10098000303802401F48034900780A681044086064
:10099000704700BFE404002080B50B48016841F4B3
:1009A00000710160016841F480610160016841F4F7
:1009B00080710160032000F069F80F2000F006F854
:1009C00000F022F8002080BD003C024070B50D4EC2
:1009D00004464FF47A713078B1FBF0F07D49096834
:1009E000B1FBF0F000F0BEFA01250F2C08D838B9A1
:1009F0004FF0FF3021460022002500F021F87460FE
:100A0000284670BD0000002082B000200B490190F4
:100A10004A6842F480424A604A6802F48042019285
:100A2000019A0090086840F080500860086800F063
:100A300080500090009802B0704700BF40380240DC
:100A4000F0B5184B4FF0FF361C68C4F30224E51EC6
:100A500084F0070438BF002506FA05F7BA43042CD2
:100A600028BF042406FA04F4A14300F00F04A940AF
:100A7000043C1143044A234409010244002848BFAE
:100A800003F10C021170F0BD00E400E005494FF6DF
:100A9000FF030A681A4060F30A2203481043086003
:100AA000704700BF0CED00E00000FA052DE9F041B1
:100AB000002857D03F4B04468846D3F8000400F086
:100AC0000700884204D283F8008400F041FE49D137
:100AD0002068810711D5410703D5996841F4E05199
:100AE0009960010703D5996841F460419960A16854
:100AF0009A6822F0F00211439960C0072BD100F0F0
:100B000027FE04D983F8008400F022FE2AD1206851
:100B1000410705D5E1689A6822F4E05211439960D3
:100B2000000706D52069996821F4604141EAC000B8
:100B300098601C4600F054F8A1681F4AC1F30311E5
:100B4000515CC840234908601C480068FFF73EFF1D
:100B50000020BDE8F0816068811E022905D2196875
:100B6000890107D40120BDE8F08101281DD1196851
:100B70008903F7D599681D4621F003010843986061
:100B8000FFF7EEFC064641F288376068A9682B46FD
:100B900001F00C01B1EB800FB1D0FFF7E1FC801B3D
:100BA000B842F2D90320BDE8F08119688907D9D588
:100BB000E0E700BF003802401A1A000804000020D5
:100BC00004480549054A00680968C1F38221515C5F
:100BD000C840704708000020083802402A1A000860
:100BE00010B5134C606800F00C00082804D00428ED
:100BF00014BF1048104810BD22682068002340022E
:100C000002F03F020C485CBF42F20040C0F2F40028
:100C10002168C1F38811A0FB0101FFF7D9FA21680F
:100C20000222C1F3014102EB4101B0FBF1F010BD22
:100C3000043802400024F40040787D012DE9FC4195
:100C4000002860D004460078C34EC0070BD0B068BF
:100C500000F00C00042840F08F803068800302D53B
:100C6000606800284FD02078800718D5B06810F051
:100C70000C0F07D000F084FD40F0968070684002B1
:100C800000F192803068800702D5E06801283AD1EF
:100C90002069316821F0F80141EAC0003060207815
:100CA000000733D42078400743D4A76947B300F046
:100CB00067FD40F0AA80012F25D0E169706800F43B
:100CC00080028A421FD1216A00F03F028A421AD173
:100CD00047F6C071626A0140B1EB821F13D1A16A6D
:100CE0004FF6FF72C903914300F44032A1F5803101
:100CF0008A4208D1E16A00F07060B0EB016F02D166
:100D00000020BDE8FC810120BDE8FC8161699348B9
:100D100000296AD00121C0F8801EFFF721FC05469A
:100D2000706F8007BED4FFF71BFC401B0228F7D969
:100D3000C9E0306C10F080580AD100200190306C6E
:100D400040F080503064306C00F080500190019889
:100D5000834F3868C0053AD4386840F480703860F2
:100D6000FFF7FEFB05463868C00530D4FFF7F8FBF7
:100D7000401B0228F7D9A6E000F002FD03D17068FD
:100D800040023FF56AAF6068B0F5803F07D0B0F52C
:100D9000A02F40F08280306840F4802030603068BE
:100DA00040F48030306082E0E06800284CD06B482E
:100DB00001210160FFF7D4FB0546306880073FF54D
:100DC00067AFFFF7CDFB401B0228F6D97BE0A06898
:100DD000012805D0052848D1306F40F00400306765
:100DE000306F40F00100306749E00021C0F8801EFC
:100DF000FFF7B6FB0546706F80077FF553AFFFF72F
:100E0000AFFB401B0228F6D95DE05449002088461C
:100E10000866FFF7A5FB0546022F0AD14746306852
:100E2000800153D5FFF79CFB411B03200229F6D913
:100E300067E7306880017FF563AFFFF791FB411BE7
:100E400003200229F5D95CE7444800210160FFF73F
:100E500087FB0546306880077FF521AFFFF780FBF1
:100E6000411B03200229F5D94BE7316F002821F0FF
:100E700001013167316F21F00401316745D0FFF77F
:100E80006FFB054641F28837306F80074CD4FFF77F
:100E900067FB401BB842F7D915E03168002821F400
:100EA00080313160316821F48021316045D0FFF715
:100EB00057FB0546306880033FF5D5AEFFF750FB82
:100EC000401B6428F6D90320BDE8FC811C341FCCEC
:100ED0000843D90340EA82104FF6FF72914340EA7B
:100EE0000460A1F580310843706001203866FFF787
:100EF00037FB0446306880013FF502AFFFF730FB57
:100F0000011B03200229F5D9FBE6FFF729FB054663
:100F100041F28837306F800706D5FFF721FB411B70
:100F20000320B942F6D9ECE6B8F1000F7FF4BDAE6C
:100F3000306C20F080503064B7E6FFF711FB0546B7
:100F4000306880037FF58FAEFFF70AFB411B03205B
:100F50006429F5D9D5E600BF0038024000004742B9
:100F600000700040411E0020B0EB116F1CBF01203B
:100F70007047044AF023516003490B7007219060C9
:100F80001160704710E000E023ED00E0FEE7000094
:100F9000022829D1B0B586B0DD48FFF7E7FA032073
:100FA000CE4C002504901120039505950290402019
:100FB000019001A92046FFF703FA082D0ED2204622
:100FC00040210022FFF7C6FA0020FFF77BF92046F8
:100FD00040210122FFF7BEFA0135EEE7CC48FFF7CA
:100FE000D9FA06B0BDE8B040704700BF0268516949
:100FF00049054FF000010FD56FF480635361202243
:10100000016380F83D2080F83E1080F83C10016CB0
:1010100041F0040101640121084670472DE9FE43B7
:10102000044600680E460A9D0B9F99469046002292
:1010300001682B4600F0E0FB48B120680068C0055D
:1010400044BF4FF4007020640320BDE8FE83206895
:1010500006F0FE012A463B4601611849204600F091
:1010600085F808B100F017BC00203A4602902068CD
:10107000416902912946806902900298204600F059
:10108000A8F830B1206C0428ECD1206800F081FB76
:10109000E8E72068B9F1010F0AD04FEA18213A4673
:1010A00001612046294600F094F80028EAD1206822
:1010B0005FFA88F101610020BDE8FE8302000100B3
:1010C000F8B515460E4604464F1C20684069400797
:1010D00044BF0020F8BD2046FFF788FF50B9002F1D
:1010E000F3D0FFF73DFA401BB04201D8002EECD1FF
:1010F00000F09CFB0120F8BD2DE9F047DDF82090C1
:101100001D46924680468FB201F47F045E1C182073
:10111000B4F5803F08BF1420D8F8001008583840B4
:10112000C01BB0FA80F0400950451CD1002EEED013
:10113000FFF716FAA0EB0900A84201D8002DE6D16E
:1011400000202021C8F8300088F83D1088F83E00C3
:1011500088F83C00D8F8400040F02000C8F8400073
:101160000120BDE8F0870020BDE8F0872DE9F041BF
:101170009846164604468FB2551C2068416939408E
:10118000B9420ED0416949050ED4002DF5D0FFF7C4
:10119000E7F9A0EB08012020B1420BD8002EECD1DA
:1011A00008E00020BDE8F08100F0F3FA6FF4806100
:1011B0004161042000212022216384F83D2084F82D
:1011C0003E1084F83C10216C084320640120BDE8E7
:1011D000F081F8B515460E4604464F1C206840695C
:1011E000000644BF0020F8BD2046FFF7FFFE50B9BF
:1011F000002FF3D0FFF7B4F9401BB04201D8002E06
:10120000ECD100F013FB0120F8BD000070B50B4ECF
:101210000C4605464FF4005100223046FFF79AF97C
:10122000681EFFF74FF830464FF400510122FFF7D8
:1012300091F9601EBDE87040FFF744B80008024015
:101240002DE9F04387B00027234800224FF40056D1
:1012500006970197016841F004010160016801F0FF
:101260000401019101990197016841F08001016039
:10127000016801F08001019101990197016841F035
:10128000020101604FF40051006800F0020001907B
:101290000198124800F5806581462846FFF75AF903
:1012A0004846202100224FF02008FFF753F901247F
:1012B000CDE904772846CDE9026402AE3146FFF756
:1012C0007FF848463146CDE90477CDE90284FFF73F
:1012D00077F807B0BDE8F0833038024000040240E0
:1012E00010B5A8480B4B0C4C00214FF48042C0E9CC
:1012F0000043C0E90211C0E90421C0E906110162FE
:10130000FFF748F918B1BDE81040FEF7D7BF10BD90
:1013100090040020801A060000540040FEE7FEE71B
:101320008E4900200022082A08BF00F099B8002347
:10133000802B03D001F833000133F9E7013101328A
:10134000F1E700BF20B1012818BF7047A72000E0D7
:10135000A620002100F0EAB910B528B1012818BF75
:1013600010BDA024C02001E0A124C820002100F06D
:10137000DDF920460021BDE8104000F0D7B900009B
:10138000B0B501F007030124C90804FA03F3734C54
:10139000002A04EBC000445C44EA030508BF24EAC9
:1013A00003054554B0BD00BF10B50520FEF78AFF08
:1013B000464CE3200021A047AE200021A047642036
:1013C000FEF780FF00200021A04710200021A04749
:1013D00000200021A047B0200021A047812000214B
:1013E000A047FF200021A047A1200021A047A62060
:1013F0000021A047C8200021A047D3200021A047FA
:1014000000200021A047D5200021A04780200021F6
:10141000A047D9200021A0471F200021A047A820D5
:101420000021A0473F200021A047DA200021A0474B
:1014300012200021A047DB200021A04740200021EE
:10144000A0478D200021A04714200021A047FFF7CE
:1014500067FFAF2000212246BDE81040104700BFC3
:101460002DE9F04FA3B03D4EDFF860B0DFF8DCA20D
:1014700000254FF032084FF0800903AC082D21D031
:10148000A5F1500000210027C0B2D847002000215C
:10149000D84710200021D847802F04D016F83700F5
:1014A000E0550137F8E75046782140220123CDE985
:1014B0000049CDF80880FFF7A9F9FFF769FD01366B
:1014C0000135DBE723B0BDE8F08F00BF2D17000822
:1014D00082B0224F904681460E010025002420064E
:1014E00008D1EAB2802010211023CDF8008000F04E
:1014F000C5F80135E8B2484517D10025E8B2864263
:1015000012D90120394690280AD00022042A04D09A
:101510008B181B7A8B540132F8E708310130F2E75F
:10152000FFF79EFF0135E9E70025601C01213A46DF
:1015300090290AD00023042B04D0D418247AD45440
:101540000133F8E708320131F2E7C1B2B1F110041A
:1015500018BF0446FFF784FFC1E700BF100000205A
:10156000E0B58DF8060048F2781078210323ADF835
:1015700004000A200090754801AAFFF7A3F8FFF7BE
:1015800007FD8CBD900400202DE9F04F89B0129F1B
:101590001C468146082B089101D1062308E001234F
:1015A00061074FEAD40118BF03EBD40163084B4332
:1015B0006108B7FA87F60025CDF814900491A2F1DE
:1015C0002001CAB2D9B207912B4902EB4203039220
:1015D000029301EB43010691254901EB02110191B0
:1015E0000799E8B281423DD9082C01D1069910E053
:1015F000182C06D0102C0BD00C2C33D102991D4A7C
:1016000003E00399194A01EBC10102EB810100E0FB
:1016100001990844DDF820B04FF0000A90F80080EE
:10162000BAF1070F0DD85FEAC8703A465FFA8BF13E
:101630005FFA89F008BF7209FFF7A2FE00F08EF88A
:10164000EEE709F10109082C0AD005995FFA89F043
:10165000049A401A904203D10898894608300890AD
:101660000135BDE709B0BDE8F08F00BF9E27000837
:10167000AE2100083A1D0008121B00082DE9FE4F9C
:10168000102B029030D1D8080C9E029C8946002570
:10169000584301901548B6FA86F700EB42100090C7
:1016A0000198854220D200984FF0000ACB4610F8EE
:1016B0000580BAF1070F0CD85FEAC87032465FFAAE
:1016C0008BF1E0B208BF7A09FFF75AFE00F046F846
:1016D000EFE701340299E0B2401A102804BF0C462B
:1016E00009F108090135DBE7BDE8FE8F321A000871
:1016F0002DE9F843DDF820905E081C461546884623
:101700000746082B08BF06262A78A2F12000C0B29F
:101710005E2888BFBDE8F883F8B241462346CDF87D
:101720000090FFF731FF37440135EDE7E0B58DF864
:1017300005000A208DF80410782102230090034848
:1017400001AAFEF7BFFFFFF723FC8CBD9004002029
:10175000D3F8000400F00700404570470AF1010A81
:101760000BF1010B4FEA58087047012084F83C0048
:1017700020680168C907704794F83C000128704749
:10178000B06800F00C000828704794F83D0020284D
:101790007047016841F4007101607047206801687A
:1017A00041F400710160202084F83D00002084F89D
:1017B0003C0084F83E007047016841F4807101608C
:1017C000704701220DF1280884F83C20226898E82F
:1017D00003011368DB077047606A2168024612F84C
:1017E000013B0B61638D013B638562627047016859
:1017F00041F001010160704741F4807101602046B1
:101800004FF001110097FFF777BC0446FEF7A8BE22
:1018100084F83D20402284F83E2000222264618525
:1018200060627047608D013860857047002020211C
:10183000206384F83D1084F83E0084F83C00206C5E
:1018400040F0200020647047086840F00100086004
:101850007047242084F83D002068016821F00101D0
:101860000160704784F83D10102184F83E1000217B
:1018700021647047B0FBF3F001306FF31F30002894
:1018800070470190206841690191704708612046C6
:101890002946FFF76BBC0120BDE8FE83002084F8D9
:1018A0003C00704770477047FFF76CB8B0B592B016
:1018B00000241421CDE90A44CDE9084401A8FEF72B
:1018C000BFFC214800940225016841F0805101606D
:1018D000006800F080500090009800941B48016858
:1018E00041F440410160006800F440400090042051
:1018F0001095119060200F900C200E904FF48000F6
:10190000CDE90C504FF480300790012006900098EC
:1019100006A8FFF793F918B1EFF3108072B6FEE74F
:101920004FF480500594CDE90254032104900F2018
:10193000019001A8FFF7BAF818B1EFF3108072B662
:10194000FEE712B0B0BD00BF40380240007000405A
:101950000248016841F470010160704788ED00E0C1
:10196000FEE7000082B0FFF717F8FFF79FFFFFF7D1
:1019700067FCFFF7B5FCFFF717FD8020FFF7F0FDD0
:1019800000204FF00008FFF7DDFC0020FFF7E4FC2B
:10199000174C184E002010211023CDF8008022464D
:1019A000B047154D012700202221082300972A4621
:1019B000B047FFF755FD4FF4FA60FEF783FC0020B7
:1019C000222122461023CDF80080B0470020382184
:1019D0002A4608230097B047072003210122FFF77A
:1019E00077FD14204FF44871FFF710FCF9E700BFB2
:1019F000FA340008F11600080B35000802E008C8A8
:101A0000121F08C1002AFAD170477047002001E078
:101A100001C1121F002AFBD1704700000000000026
:101A2000000001020304060708090000000001028B
:101A300003041088C433809E909F909E20D817F096
:101A400010000100FF80403E02023E1088671867C8
:101A50008000001088C4330040424242C2424242E9
:101A60004000020100FF0000000040807F000000F5
:101A700000000000F888888888FF88888888F80037
:101A8000000000001F080808087F888888889F8059
:101A9000F00080828282828282E2A2928A868280A2
:101AA0008000000000000040807F00000000000077
:101AB000000000040404040404FC040404040404FA
:101AC0000000202020202020203F20202020202037
:101AD0002000008060F80740300FF8888888880868
:101AE0000800010000FF00000000FF0808080808C7
:101AF0000000100C2424A46425262424A4242414E7
:101B00000C00404048494949497F4949494B4840B0
:101B100040000000000000000000002F0000000056
:101B20000700070000147F147F1400242A7F2A1264
:101B30000062640813230036495522500000050353
:101B4000000000001C224100000041221C00001483
:101B5000083E08140008083E0808000000A06000C5
:101B60000008080808080000606000000020100855
:101B70000402003E5149453E0000427F40000042C1
:101B800061514946002141454B31001814127F1024
:101B9000002745454539003C4A4949300001710953
:101BA000050300364949493600064949291E000007
:101BB00036360000000056360000000814224100AE
:101BC00000141414141400004122140800020151DE
:101BD000090600324959513E007C1211127C007FE7
:101BE00049494936003E41414122007F4141221C82
:101BF000007F49494941007F09090901003E4149E7
:101C0000497A007F0808087F0000417F41000020DA
:101C100040413F01007F08142241007F4040404086
:101C2000007F020C027F007F0408107F003E4141CC
:101C3000413E007F09090906003E4151215E007FB7
:101C4000091929460046494949310001017F01012E
:101C5000003F4040403F001F2040201F003F4038D1
:101C6000403F006314081463000708700807006110
:101C70005149454300007F41410000552A552A55EE
:101C8000000041417F000004020102040040404086
:101C90004040000001020400002054545478007FAA
:101CA0004844443800384444442000384444487F81
:101CB00000385454541800087E0901020018A4A4E6
:101CC000A47C007F080404780000447D40000040AC
:101CD00080847D00007F102844000000417F400088
:101CE000007C04180478007C08040478003844441C
:101CF000443800FC242424180018242418FC007CF8
:101D00000804040800485454542000043F44402070
:101D1000003C4040207C001C2040201C003C403007
:101D2000403C004428102844001CA0A0A07C004493
:101D300064544C44141414141414000000000000E3
:101D40000000000000000000FC0000000000020095
:101D50000000000C020C020000000000000090D007
:101D6000BCD0BC900003000300001824FE448C008B
:101D70000302070201001824D8B04C8000030001C0
:101D80000201C038E438E000010202010202080644
:101D900000000000000000000000000000F8040245
:101DA000000000010204000204F800000004020127
:101DB00000009060F860900000000100000020200A
:101DC000FC202000000001000000000000000000D6
:101DD0000806000000002020202020000000000055
:101DE0000000000000000000000200000000008071
:101DF000601C0200040300000000F8040404F80062
:101E00000102020201000008FC00000000020302BF
:101E1000000018844424180003020202020008048F
:101E20002424D80001020202010040B088FC800096
:101E30000000000302003C242424C400010202022A
:101E40000100F824242CC0000102020201000C044D
:101E5000E41C0400000003000000D8242424D8005F
:101E600001020202010038444444F8000003020267
:101E7000010000001000000000000200000000004F
:101E8000200000000000060000000020508804022E
:101E9000000000000102909090909000000000006F
:101EA0000000000204885020000201000000180415
:101EB000C4241800000002000000F804E494F800B4
:101EC00001020202020000E09CF080000203000018
:101ED000030204FC2424D800020302020100F804D7
:101EE00004040C0001020202010004FC0404F800D6
:101EF00002030202010004FC24740C00020302022B
:101F0000030004FC24740C00020302000000F0082B
:101F10000444CC4000010202010004FC2020FC0427
:101F20000203000003020404FC0404000202030292
:101F30000200000404FC040406040403000004FC82
:101F400024D00C0402030200030204FC040000007D
:101F5000020302020203FC3CC03CFC00030003003D
:101F6000030004FC30C4FC04020302000300F80474
:101F70000404F80001020202010004FC24241800F9
:101F8000020302000000F8848404F8000102020742
:101F9000050004FC246498000203020003021824D4
:101FA00024448C000302020201000C04FC040C0017
:101FB00000020302000004FC0000FC040001020215
:101FC0000100047C80E01C040000030000001CE011
:101FD0003CE01C00000300030000049C609C040023
:101FE000020300030200041CE01C040000020302C0
:101FF00000000C84641C04000203020203000000C1
:10200000FE020200000007040400000E30C00000C1
:10201000000000010200000202FE000000040407AC
:1020200000000004020400000000000000000000A6
:10203000000000000808080808080000020000006E
:102040000000000000000040A0A0C000000102024B
:10205000030204FC2020C00000030202010000C0B3
:102060002020600000010202020000C02024FC00C9
:1020700000010202030200C0A0A0C0000001020291
:1020800002000020F82424040002030202000040A1
:10209000A0A0602000070A0A0A0404FC2020C00057
:1020A0000203020003020020E40000000002030219
:1020B0000000000020E4000008080807000004FCFD
:1020C00080E020200203020003020404FC00000060
:1020D000020203020200E020E020C000030003002F
:1020E000030020E02020C00002030200030200C021
:1020F0002020C00000010202010020E02020C000DA
:10210000080F0A02010000C02020E0000001020ABE
:102110000F0820E0402020000203020000000060C1
:10212000A0A020000002020203000020F82000000E
:1021300000000102020020E00020E0000001020295
:10214000030220E020806020000003010000608086
:10215000E080600000030003000020608060200039
:1021600002030003020020E020806020080807012D
:1021700000000020A0602000000203020200000016
:1021800020DE0200000000070400000000FF000045
:102190000000000F00000002DE2000000004070025
:1021A0000000020102040402000000000000000020
:1021B000000000000000000000000000000000001F
:1021C00000F80000000000000033300000000010A4
:1021D0000C06100C0600000000000000000040C0CB
:1021E0007840C0784000043F04043F0404000070BD
:1021F00088FC08300000001820FF211E0000F008B5
:10220000F000E018000000211C031E211E0000F059
:102210000888700000001E212324192721101016A1
:102220000E000000000000000000000000000000A0
:1022300000E018040200000000071820400000021F
:102240000418E00000000040201807000000404093
:1022500080F0804040000202010F010202000000F5
:1022600000F0000000000101011F01010100000059
:1022700000000000000080B07000000000000000BE
:102280000000000000000001010101010101000047
:1022900000000000000000303000000000000000DE
:1022A000000080601804006018060100000000E0D3
:1022B00010080810E000000F102020100F00001080
:1022C00010F8000000000020203F202000000070D7
:1022D00008080888700000302824222130000030CF
:1022E0000888884830000018202020110E000000C7
:1022F000C02010F8000000070424243F240000F848
:102300000888880808000019212020110E0000E02C
:10231000108888180000000F112020110E000038CE
:102320000808C83808000000003F000000000070E6
:10233000880808887000001C222121221C0000E06F
:1023400010080810E0000000312222110F000000E8
:1023500000C0C0000000000000303000000000009D
:10236000008000000000000080600000000000000D
:1023700080402010080000010204081020004040A6
:1023800040404040400004040404040404000008E9
:10239000102040800000002010080402010000709E
:1023A00048080808F0000000003036010000C03086
:1023B000C828E810E0000718272423140B000000A9
:1023C000C038E0000000203C23020227382008F833
:1023D000888888700000203F202020110E00C03027
:1023E000080808083800071820202010080008F8FE
:1023F00008080810E000203F202020100F0008F8F7
:102400008888E8081000203F20202320180008F8C2
:102410008888E8081000203F200003000000C0303A
:1024200008080838000007182020221E020008F8BB
:1024300008000008F808203F210101213F20000882
:1024400008F8080800000020203F202000000000BD
:102450000808F8080800C08080807F00000008F8A5
:1024600088C028180800203F20012638200008F8DE
:10247000080000000000203F20202020300008F845
:10248000F800F8F80800203F003F003F200008F85F
:1024900030C00008F808203F200007183F00E01077
:1024A00008080810E0000F10202020100F0008F886
:1024B00008080808F000203F210101010000E01099
:1024C00008080810E0000F18242438504F0008F8BE
:1024D000888888887000203F2000030C302000701E
:1024E0008808080838000038202121221C0018081C
:1024F00008F8080818000000203F2000000008F835
:1025000008000008F808001F202020201F0008787D
:10251000880000C83808000007380E010000F808DD
:1025200000F80008F800033C0700073C0300081807
:1025300068808068180820302C03032C302008386D
:10254000C800C83808000000203F20000000100824
:102550000808C8380800203826212020180000006C
:1025600000FE020202000000007F40404000000C1C
:1025700030C000000000000000010638C00000026A
:102580000202FE000000004040407F00000000000A
:10259000040202020400000000000000000000002D
:1025A0000000000000008080808080808080000229
:1025B0000204000000000000000000000000000015
:1025C0008080808000000019242222223F2008F809
:1025D000008080000000003F112020110E0000004C
:1025E000008080800000000E1120202011000000DB
:1025F00000808088F800000E112020103F2000008D
:10260000808080800000001F222222221300008090
:1026100080F0888888180020203F202000000000DB
:10262000808080808000006B94949493600008F810
:10263000008080800000203F210000203F2000809B
:102640009898000000000020203F2020000000009B
:1026500000809898000000C08080807F000008F80B
:10266000000080808000203F24022D3020000008E0
:1026700008F8000000000020203F2020000080809B
:10268000808080808000203F20003F20003F8080AD
:10269000008080800000203F210000203F200000BB
:1026A000808080800000001F202020201F0080806C
:1026B00000808000000080FFA12020110E0000009B
:1026C000008080808000000E112020A0FF8080808C
:1026D00080008080800020203F2120000100000039
:1026E000808080808000003324242424190000800E
:1026F00080E0808000000000001F2020000080801B
:10270000000000808000001F202020103F208080DB
:1027100080000080808000010E300806010080806B
:102720000080008080800F300C030C300F00008090
:102730008000808080000020312E0E3120008080BB
:1027400080000080808080818E70180601000080EB
:102750008080808080000021302C22213000000009
:102760000000807C020200000000003F40400000AA
:102770000000FF00000000000000FF000000000259
:10278000027C800000000040403F00000000000686
:10279000010102020404000000000000000000002B
:1027A0000000000000000000000000000000000029
:1027B0000000000000000000000000000000000019
:1027C00000000000000000F0F0F000000000000039
:1027D000000000017F010000000000000000001C5C
:1027E0001C1C0000000000008060301C8C60301C4D
:1027F0000C000000000000000000000000000000CD
:1028000000000000000000000000000000E00000E8
:10281000000000E000000086E69F86868686E69F30
:10282000860000011F01010101011F0101000000DC
:1028300080C06020F820E0C00000000003070C18F2
:10284000FF70E18100000000070F10107F100F07DC
:1028500000008060206080000000E02000000F3059
:1028600020309F70DC371030C0000000100E0300D5
:102870000718101807000000C02020E0C00000006A
:10288000000080E01F38E88703C43C040000070F05
:102890001810100B070D1010080000808C4C380029
:1028A0000000000000000000000000000000000028
:1028B0000000000000000000000000000000000018
:1028C0000000000080E0300804000000000000FE6E
:1028D000FF0100000000000000000000030F1820AE
:1028E000400000040830E08000000000000000000C
:1028F000000001FFFE0000000000004020180F0350
:10290000000000000000000000000000C000000007
:102910000000004266663C18FF183C6666420000F4
:1029200000000000030000000000000000000000A4
:10293000800000000000001010101010FF10101098
:102940001010000000000000030000000000000064
:102950000000000000000000000000000000000077
:1029600000000000000000808C4C380000000000D7
:102970000000000000000000000000000000001047
:1029800010101010101010101000000000000000B7
:102990000000000000000000000000000000000037
:1029A0000000000000000000000000000000000027
:1029B0001C1C1C00000000000000000000000000C3
:1029C0000000E0380C000000000080701C030000D4
:1029D00000000060380E0100000000000000000050
:1029E00080C060202060C080000000FEFF01000069
:1029F000000001FFFE000001070E181010180E075E
:102A000001000000808080C0E000000000000000A5
:102A1000000000FFFF000000000000001010101F69
:102A20001F10101000000080402020202060C08077
:102A3000000000030300804020381F070000001C36
:102A40001A1918181818181F00000080C02020201C
:102A500060C080000000000303001010182FE78002
:102A6000000000070F10101010180F0700000000E2
:102A700000000000C0E0F000000000C0B0888681C7
:102A800080FFFF808000000000000010101F1F105A
:102A900010000000E06060606060606000000000A6
:102AA0003F1008080818F0E0000000070B10101095
:102AB000101C0F030000000080C040202020E0C058
:102AC000000000FCFF211008080818F0E0000001D9
:102AD000070C18101010080F03000000C0E0606021
:102AE000606060E06000000003000000E018070084
:102AF000000000000000001F1F0000000000008018
:102B0000C0602020202060C080000087EF2C1818B3
:102B1000303068CF830000070F0810101010180F16
:102B200007000000C0C020202020C0800000001F3F
:102B30003F604040402010FFFE0000000C1C1010C1
:102B400010080F030000000000000000000000005B
:102B5000000000000000000E0E0E0000000000004B
:102B60000000001C1C1C0000000000000000000011
:102B700000000000000000000000000C0C0000003D
:102B800000000000000000583800000000000000B5
:102B90000000000000804020100000001028448247
:102BA0000100000000000000000000000102040815
:102BB0001000000000000000000000000000008481
:102BC0008484848484848484840000000000000061
:102BD0000000000000000000102040800000000005
:102BE00000000000000000000182442810000000E6
:102BF0001008040201000000000000C02020101096
:102C0000101030E0C0000003030000F010080C07B3
:102C10000300000000001C1C1C000000000000005D
:102C200000C0406020202040C00000FCFF01F00EEA
:102C300003C1FE03807F0001070E08111110110966
:102C400004020000000080E0E0000000000000003E
:102C5000807C4340477FF880000010181F10000060
:102C60000000131F1C1020E0E02020202060C08006
:102C7000000000FFFF10101010182FE78000101F39
:102C80001F1010101010180F0700000080C0402007
:102C900020202060E00000FCFF0100000000000098
:102CA00001000001070E181010100804030020E0B6
:102CB000E02020202040C080000000FFFF00000036
:102CC000000001FFFE00101F1F10101018080E0753
:102CD000010020E0E020202020202060800000FF74
:102CE000FF101010107C00000000101F1F101010AB
:102CF00010101018060020E0E02020202020606046
:102D0000800000FFFF101010107C00000100101F59
:102D10001F100000000000000000000080C06020C4
:102D2000202040E0000000FCFF0100004040C0C146
:102D300040400001070E181010100F0F000020E097
:102D4000E0200000000020E0E02000FFFF10101055
:102D5000101010FFFF00101F1F1000000000101FB8
:102D60001F100000202020E0E020202000000000B4
:102D7000000000FFFF000000000000001010101F06
:102D80001F101010000000000000202020E0E020B4
:102D9000202000000000000000FFFF000000006095
:102DA000E0808080C07F3F00000020E0E020000045
:102DB00020A06020200000FFFF30187CE3C000004E
:102DC0000000101F1F10000001131F1C181020E02E
:102DD000E020000000000000000000FFFF000000F5
:102DE000000000000000101F1F101010101010181D
:102DF000060020E0E0E000000000E0E0E02000FF4E
:102E0000013FFEC0E01E01FFFF00101F1000031F66
:102E10000300101F1F1020E0E0C000000000002091
:102E2000E02000FF0003071C78E08000FF00101F77
:102E3000100000000000030F1F00000080C0602091
:102E40002060C080000000FEFF010000000000FFC5
:102E5000FE000001070E181010180C07010020E0FA
:102E6000E0202020202060C0800000FFFF202020E4
:102E70002020301F0F00101F1F1000000000000056
:102E80000000000080C060202060C080000000FEC4
:102E9000FF010000000000FFFE000001070E1111FD
:102EA000133C7C67210020E0E0202020202060C02F
:102EB000800000FFFF101030F0D0080F0700101F37
:102EC0001F10000000030F1C10100080C0602020A5
:102ED00020204040E00000070F0C1818303060E060
:102EE0008100001F0C0810101010180F07008060E0
:102EF000202020E0E020202060800100000000FF72
:102F0000FF000000000100000000101F1F10000063
:102F1000000020E0E020000000000020E02000FF92
:102F2000FF00000000000000FF0000070F18101055
:102F30001010100807002060E0E02000000020E0F2
:102F400060200000077FF88000807C030000000004
:102F50000000071F1C070000000020E0E02000E048
:102F6000E0200020E0200007FFF8E01FFFFCE01F4A
:102F700000000000031F0300011F030000000020E9
:102F800060E0A0000020E0602000000000038F7CD3
:102F9000F8C6010000000010181E130001171F18CA
:102FA00010002060E0E02000000020E06020000031
:102FB00001073EF8E0180700000000000010101F95
:102FC0001F101000000000806020202020A0E0E002
:102FD000200000000000C0F03E0F030000000010C1
:102FE0001C1F17101010101806000000000000FC35
:102FF0000404040404000000000000FF00000000BE
:10300000000000000000007F404040404000000001
:1030100010E0000000000000000000000000031CA1
:1030200060800000000000000000000000030C7041
:10303000800000000404040404FC00000000000000
:103040000000000000FF0000000000004040404081
:10305000407F0000000000000010080C040C081065
:103060000000000000000000000000000000000060
:103070000000000000000000000000000000000050
:103080000000000000000000000000000000000040
:103090000000808080808080808080808080000030
:1030A0000004040808000000000000000000000008
:1030B0000000000000000000000000000000000010
:1030C0000000000000000000000000000000000000
:1030D00098D844642424FCF80000000F1F18101036
:1030E00010081F1F10180020E0F000000000000072
:1030F00000000000FFFF180804040CF8F0000000B6
:103100001F0F18101010180F03000000000000001F
:1031100000000000000000E0F8180404043C38003F
:10312000000000030F0C1010101008060000000033
:10313000000000000020E0F0000000E0F81C0404A3
:103140000408FFFF000000030F18101010081F0FE5
:103150000800000000000000000000000000000067
:10316000E0F8484444444C7870000000030F0C1809
:103170001010100804000000000080C0602020E053
:10318000C00000040404FFFF040404040000000065
:1031900010101F1F101010000000000000000000A1
:1031A000000000000000000070F88C04048CF8742B
:1031B000040C007076CF8D8D8D89C878700000204A
:1031C000E0F000000000000000000000FFFF080425
:1031D0000404FCF8000000101F1F100000101F1F47
:1031E000100000000000006060000000000000000F
:1031F000040404FCFC000000000000001010101F7C
:103200001F101010000000000000000000606000AF
:10321000000000000000040404FCFC0000000000AA
:10322000C0C08080C07F3F0000000020E0F00000B0
:103230000000000000000000FFFF80C0F41C040438
:10324000000000101F1F1100031F1C1010000000C1
:10325000202020E0F000000000000000000000FF3F
:10326000FF000000000000001010101F1F101010C1
:10327000000000000000000000000000000004FC4E
:10328000FC0804FCFC0804FCFC00101F1F10001FBD
:103290001F10001F1F1000000000000000000000B1
:1032A00000000004FCFC08080404FCF80000001006
:1032B0001F1F100000101F1F100000000000000062
:1032C00000000000000000E0F0180C04040C18F0EE
:1032D000E00000030F0C101010100C0F0300000092
:1032E000000000000000000000000004FCFC0804D6
:1032F00004040CF8F0000080FFFF889010101C0FF1
:10330000030000000000000000000000000000E0DA
:10331000F81C04040408F8FC000000030F18101047
:103320009088FFFF80000000000000000000000007
:103330000000040404FCFC100804040C0C00101031
:10334000101F1F10101000000000000000000000FF
:1033500000000000000000003078CCC48484840C9D
:103360001C0000001E1810101011190F060000009C
:10337000000000C000000000000000040404FFFF83
:10338000040404000000000000000F1F1010100CC7
:103390000000000000000000000000000000000429
:1033A000FCFE00000004FCFE000000000F1F1810CF
:1033B00010081F0F080000000000000000000000BF
:1033C000000000040C3CFCC40000C43C0C040000E1
:1033D0000000010F1E0E01000000000000000000B0
:1033E000000000000000043CFCC400E47CFC84807D
:1033F0007C040000071F070000071F0700000000F3
:10340000000000000000000000000004041C7CE438
:10341000C0341C0404000010101C1601131F1C18DB
:103420001000000000000000000000000000000488
:103430000C3CFCC400C43C0404000000C080C13744
:103440000E0100000000000000000000000000006D
:10345000000000001C0404C4F47C1C0400000000F4
:10346000101C1F17111010180E00000000000000A3
:1034700000F80C04000000000000001028EF00001D
:103480000000000000000000003F6040000000005D
:1034900000000000FF00000000000000000000002D
:1034A000FF0000000000000000000000FF0000001E
:1034B00000000000040CF800000000000000000004
:1034C0000000EF28100000000000000040603F00F6
:1034D000000000000000001806020204081020206E
:1034E00030080000000000000000000000000000A4
:1034F000000000000000000000002020576541632C
:10350000742053747564696F2020004F4C4544202B
:103510004D6F64756C652C4949432C35564D617867
:1035200000000000483500080000002010000000E6
:10353000FC1900085835000810000020D8080000C9
:103540000C1A00080000000001000000100000003C
:083550000024F400000000005B
:040000050800019955
:00000001FF
